AI0000000000000100000000000104000001200000  00000000000000000000000000000000000000000000000000000000010000000000020000000000030000000000040000000000050000000000000000000000PECHUGA PICADA                  ^                                
AI0000000000000200000000000105000000750000  00000000000000000000000000000000000000000000000000000000010000000000020000000000030000000000040000000000050000000000000000000000ALAS                            ^                                
AI0000000000000300000000000106000001100000  00000000000000000000000000000000000000000000000000000000010000000000020000000000030000000000040000000000050000000000000000000000PECHUGA ENTERA                  ^                                
AI0000000000000400000000001203000000700000  01000000000000000000000000000000000000000000000000000000010000000000020000000000030000000000040000000000050000000000000000000000HOT DOG ECONOMICO               ^                                
